{
	"CounterInterface.sol": {
		"Counter": {
			"abi": [
				{
					"inputs": [],
					"name": "count",
					"outputs": [
						{
							"internalType": "uint256",
							"name": "",
							"type": "uint256"
						}
					],
					"stateMutability": "view",
					"type": "function"
				},
				{
					"inputs": [],
					"name": "square",
					"outputs": [],
					"stateMutability": "nonpayable",
					"type": "function"
				}
			],
			"devdoc": {
				"kind": "dev",
				"methods": {},
				"version": 1
			},
			"evm": {
				"assembly": "    /* \"CounterInterface.sol\":59:178  contract Counter {... */\n  mstore(0x40, 0x80)\n    /* \"CounterInterface.sol\":103:104  2 */\n  0x02\n    /* \"CounterInterface.sol\":83:104  uint public count = 2 */\n  0x00\n  sstore\n    /* \"CounterInterface.sol\":59:178  contract Counter {... */\n  callvalue\n  dup1\n  iszero\n  tag_1\n  jumpi\n  0x00\n  dup1\n  revert\ntag_1:\n  pop\n  dataSize(sub_0)\n  dup1\n  dataOffset(sub_0)\n  0x00\n  codecopy\n  0x00\n  return\nstop\n\nsub_0: assembly {\n        /* \"CounterInterface.sol\":59:178  contract Counter {... */\n      mstore(0x40, 0x80)\n      callvalue\n      dup1\n      iszero\n      tag_1\n      jumpi\n      0x00\n      dup1\n      revert\n    tag_1:\n      pop\n      jumpi(tag_2, lt(calldatasize, 0x04))\n      shr(0xe0, calldataload(0x00))\n      dup1\n      0x06661abd\n      eq\n      tag_3\n      jumpi\n      dup1\n      0xd742cb01\n      eq\n      tag_4\n      jumpi\n    tag_2:\n      0x00\n      dup1\n      revert\n        /* \"CounterInterface.sol\":83:104  uint public count = 2 */\n    tag_3:\n      tag_5\n      tag_6\n      jump\t// in\n    tag_5:\n      mload(0x40)\n      tag_7\n      swap2\n      swap1\n      tag_8\n      jump\t// in\n    tag_7:\n      mload(0x40)\n      dup1\n      swap2\n      sub\n      swap1\n      return\n        /* \"CounterInterface.sol\":111:175  function square() external {... */\n    tag_4:\n      tag_9\n      tag_10\n      jump\t// in\n    tag_9:\n      stop\n        /* \"CounterInterface.sol\":83:104  uint public count = 2 */\n    tag_6:\n      sload(0x00)\n      dup2\n      jump\t// out\n        /* \"CounterInterface.sol\":111:175  function square() external {... */\n    tag_10:\n        /* \"CounterInterface.sol\":166:167  2 */\n      0x02\n        /* \"CounterInterface.sol\":157:162  count */\n      sload(0x00)\n        /* \"CounterInterface.sol\":157:167  count ** 2 */\n      tag_12\n      swap2\n      swap1\n      tag_13\n      jump\t// in\n    tag_12:\n        /* \"CounterInterface.sol\":149:154  count */\n      0x00\n        /* \"CounterInterface.sol\":149:167  count = count ** 2 */\n      dup2\n      swap1\n      sstore\n      pop\n        /* \"CounterInterface.sol\":111:175  function square() external {... */\n      jump\t// out\n        /* \"#utility.yul\":7:84   */\n    tag_14:\n        /* \"#utility.yul\":44:51   */\n      0x00\n        /* \"#utility.yul\":73:78   */\n      dup2\n        /* \"#utility.yul\":62:78   */\n      swap1\n      pop\n        /* \"#utility.yul\":7:84   */\n      swap2\n      swap1\n      pop\n      jump\t// out\n        /* \"#utility.yul\":90:208   */\n    tag_15:\n        /* \"#utility.yul\":177:201   */\n      tag_24\n        /* \"#utility.yul\":195:200   */\n      dup2\n        /* \"#utility.yul\":177:201   */\n      tag_14\n      jump\t// in\n    tag_24:\n        /* \"#utility.yul\":172:175   */\n      dup3\n        /* \"#utility.yul\":165:202   */\n      mstore\n        /* \"#utility.yul\":90:208   */\n      pop\n      pop\n      jump\t// out\n        /* \"#utility.yul\":214:436   */\n    tag_8:\n        /* \"#utility.yul\":307:311   */\n      0x00\n        /* \"#utility.yul\":345:347   */\n      0x20\n        /* \"#utility.yul\":334:343   */\n      dup3\n        /* \"#utility.yul\":330:348   */\n      add\n        /* \"#utility.yul\":322:348   */\n      swap1\n      pop\n        /* \"#utility.yul\":358:429   */\n      tag_26\n        /* \"#utility.yul\":426:427   */\n      0x00\n        /* \"#utility.yul\":415:424   */\n      dup4\n        /* \"#utility.yul\":411:428   */\n      add\n        /* \"#utility.yul\":402:408   */\n      dup5\n        /* \"#utility.yul\":358:429   */\n      tag_15\n      jump\t// in\n    tag_26:\n        /* \"#utility.yul\":214:436   */\n      swap3\n      swap2\n      pop\n      pop\n      jump\t// out\n        /* \"#utility.yul\":442:622   */\n    tag_16:\n        /* \"#utility.yul\":490:567   */\n      0x4e487b7100000000000000000000000000000000000000000000000000000000\n        /* \"#utility.yul\":487:488   */\n      0x00\n        /* \"#utility.yul\":480:568   */\n      mstore\n        /* \"#utility.yul\":587:591   */\n      0x11\n        /* \"#utility.yul\":584:585   */\n      0x04\n        /* \"#utility.yul\":577:592   */\n      mstore\n        /* \"#utility.yul\":611:615   */\n      0x24\n        /* \"#utility.yul\":608:609   */\n      0x00\n        /* \"#utility.yul\":601:616   */\n      revert\n        /* \"#utility.yul\":628:730   */\n    tag_17:\n        /* \"#utility.yul\":670:678   */\n      0x00\n        /* \"#utility.yul\":717:722   */\n      dup2\n        /* \"#utility.yul\":714:715   */\n      0x01\n        /* \"#utility.yul\":710:723   */\n      shr\n        /* \"#utility.yul\":689:723   */\n      swap1\n      pop\n        /* \"#utility.yul\":628:730   */\n      swap2\n      swap1\n      pop\n      jump\t// out\n        /* \"#utility.yul\":736:1584   */\n    tag_18:\n        /* \"#utility.yul\":797:802   */\n      0x00\n        /* \"#utility.yul\":804:808   */\n      dup1\n        /* \"#utility.yul\":828:834   */\n      dup3\n        /* \"#utility.yul\":819:834   */\n      swap2\n      pop\n        /* \"#utility.yul\":852:857   */\n      dup4\n        /* \"#utility.yul\":843:857   */\n      swap1\n      pop\n        /* \"#utility.yul\":866:1578   */\n    tag_30:\n        /* \"#utility.yul\":887:888   */\n      0x01\n        /* \"#utility.yul\":877:885   */\n      dup6\n        /* \"#utility.yul\":874:889   */\n      gt\n        /* \"#utility.yul\":866:1578   */\n      iszero\n      tag_32\n      jumpi\n        /* \"#utility.yul\":982:986   */\n      dup1\n        /* \"#utility.yul\":977:980   */\n      dup7\n        /* \"#utility.yul\":973:987   */\n      div\n        /* \"#utility.yul\":967:971   */\n      dup2\n        /* \"#utility.yul\":964:988   */\n      gt\n        /* \"#utility.yul\":961:1011   */\n      iszero\n      tag_33\n      jumpi\n        /* \"#utility.yul\":991:1009   */\n      tag_34\n      tag_16\n      jump\t// in\n    tag_34:\n        /* \"#utility.yul\":961:1011   */\n    tag_33:\n        /* \"#utility.yul\":1041:1042   */\n      0x01\n        /* \"#utility.yul\":1031:1039   */\n      dup6\n        /* \"#utility.yul\":1027:1043   */\n      and\n        /* \"#utility.yul\":1024:1475   */\n      iszero\n      tag_35\n      jumpi\n        /* \"#utility.yul\":1456:1460   */\n      dup1\n        /* \"#utility.yul\":1449:1454   */\n      dup3\n        /* \"#utility.yul\":1445:1461   */\n      mul\n        /* \"#utility.yul\":1436:1461   */\n      swap2\n      pop\n        /* \"#utility.yul\":1024:1475   */\n    tag_35:\n        /* \"#utility.yul\":1506:1510   */\n      dup1\n        /* \"#utility.yul\":1500:1504   */\n      dup2\n        /* \"#utility.yul\":1496:1511   */\n      mul\n        /* \"#utility.yul\":1488:1511   */\n      swap1\n      pop\n        /* \"#utility.yul\":1536:1568   */\n      tag_36\n        /* \"#utility.yul\":1559:1567   */\n      dup6\n        /* \"#utility.yul\":1536:1568   */\n      tag_17\n      jump\t// in\n    tag_36:\n        /* \"#utility.yul\":1524:1568   */\n      swap5\n      pop\n        /* \"#utility.yul\":866:1578   */\n      jump(tag_30)\n    tag_32:\n        /* \"#utility.yul\":736:1584   */\n      swap5\n      pop\n      swap5\n      swap3\n      pop\n      pop\n      pop\n      jump\t// out\n        /* \"#utility.yul\":1590:2663   */\n    tag_19:\n        /* \"#utility.yul\":1644:1649   */\n      0x00\n        /* \"#utility.yul\":1835:1843   */\n      dup3\n        /* \"#utility.yul\":1825:1865   */\n      tag_38\n      jumpi\n        /* \"#utility.yul\":1856:1857   */\n      0x01\n        /* \"#utility.yul\":1847:1857   */\n      swap1\n      pop\n        /* \"#utility.yul\":1858:1863   */\n      jump(tag_37)\n        /* \"#utility.yul\":1825:1865   */\n    tag_38:\n        /* \"#utility.yul\":1884:1888   */\n      dup2\n        /* \"#utility.yul\":1874:1910   */\n      tag_39\n      jumpi\n        /* \"#utility.yul\":1901:1902   */\n      0x00\n        /* \"#utility.yul\":1892:1902   */\n      swap1\n      pop\n        /* \"#utility.yul\":1903:1908   */\n      jump(tag_37)\n        /* \"#utility.yul\":1874:1910   */\n    tag_39:\n        /* \"#utility.yul\":1970:1974   */\n      dup2\n        /* \"#utility.yul\":2018:2019   */\n      0x01\n        /* \"#utility.yul\":2013:2040   */\n      dup2\n      eq\n      tag_41\n      jumpi\n        /* \"#utility.yul\":2054:2055   */\n      0x02\n        /* \"#utility.yul\":2049:2240   */\n      dup2\n      eq\n      tag_42\n      jumpi\n        /* \"#utility.yul\":1963:2240   */\n      jump(tag_40)\n        /* \"#utility.yul\":2013:2040   */\n    tag_41:\n        /* \"#utility.yul\":2031:2032   */\n      0x01\n        /* \"#utility.yul\":2022:2032   */\n      swap2\n      pop\n        /* \"#utility.yul\":2033:2038   */\n      pop\n      jump(tag_37)\n        /* \"#utility.yul\":2049:2240   */\n    tag_42:\n        /* \"#utility.yul\":2094:2097   */\n      0xff\n        /* \"#utility.yul\":2084:2092   */\n      dup5\n        /* \"#utility.yul\":2081:2098   */\n      gt\n        /* \"#utility.yul\":2078:2121   */\n      iszero\n      tag_43\n      jumpi\n        /* \"#utility.yul\":2101:2119   */\n      tag_44\n      tag_16\n      jump\t// in\n    tag_44:\n        /* \"#utility.yul\":2078:2121   */\n    tag_43:\n        /* \"#utility.yul\":2150:2158   */\n      dup4\n        /* \"#utility.yul\":2147:2148   */\n      0x02\n        /* \"#utility.yul\":2143:2159   */\n      exp\n        /* \"#utility.yul\":2134:2159   */\n      swap2\n      pop\n        /* \"#utility.yul\":2185:2188   */\n      dup5\n        /* \"#utility.yul\":2178:2183   */\n      dup3\n        /* \"#utility.yul\":2175:2189   */\n      gt\n        /* \"#utility.yul\":2172:2212   */\n      iszero\n      tag_45\n      jumpi\n        /* \"#utility.yul\":2192:2210   */\n      tag_46\n      tag_16\n      jump\t// in\n    tag_46:\n        /* \"#utility.yul\":2172:2212   */\n    tag_45:\n        /* \"#utility.yul\":2225:2230   */\n      pop\n      jump(tag_37)\n        /* \"#utility.yul\":1963:2240   */\n    tag_40:\n      pop\n        /* \"#utility.yul\":2349:2351   */\n      0x20\n        /* \"#utility.yul\":2339:2347   */\n      dup4\n        /* \"#utility.yul\":2336:2352   */\n      lt\n        /* \"#utility.yul\":2330:2333   */\n      0x0133\n        /* \"#utility.yul\":2324:2328   */\n      dup4\n        /* \"#utility.yul\":2321:2334   */\n      lt\n        /* \"#utility.yul\":2317:2353   */\n      and\n        /* \"#utility.yul\":2299:2301   */\n      0x4e\n        /* \"#utility.yul\":2289:2297   */\n      dup5\n        /* \"#utility.yul\":2286:2302   */\n      lt\n        /* \"#utility.yul\":2281:2283   */\n      0x0b\n        /* \"#utility.yul\":2275:2279   */\n      dup5\n        /* \"#utility.yul\":2272:2284   */\n      lt\n        /* \"#utility.yul\":2268:2303   */\n      and\n        /* \"#utility.yul\":2252:2363   */\n      or\n        /* \"#utility.yul\":2249:2495   */\n      iszero\n      tag_47\n      jumpi\n        /* \"#utility.yul\":2405:2413   */\n      dup3\n        /* \"#utility.yul\":2399:2403   */\n      dup3\n        /* \"#utility.yul\":2395:2414   */\n      exp\n        /* \"#utility.yul\":2386:2414   */\n      swap1\n      pop\n        /* \"#utility.yul\":2440:2443   */\n      dup4\n        /* \"#utility.yul\":2433:2438   */\n      dup2\n        /* \"#utility.yul\":2430:2444   */\n      gt\n        /* \"#utility.yul\":2427:2467   */\n      iszero\n      tag_48\n      jumpi\n        /* \"#utility.yul\":2447:2465   */\n      tag_49\n      tag_16\n      jump\t// in\n    tag_49:\n        /* \"#utility.yul\":2427:2467   */\n    tag_48:\n        /* \"#utility.yul\":2480:2485   */\n      jump(tag_37)\n        /* \"#utility.yul\":2249:2495   */\n    tag_47:\n        /* \"#utility.yul\":2520:2562   */\n      tag_50\n        /* \"#utility.yul\":2558:2561   */\n      dup5\n        /* \"#utility.yul\":2548:2556   */\n      dup5\n        /* \"#utility.yul\":2542:2546   */\n      dup5\n        /* \"#utility.yul\":2539:2540   */\n      0x01\n        /* \"#utility.yul\":2520:2562   */\n      tag_18\n      jump\t// in\n    tag_50:\n        /* \"#utility.yul\":2505:2562   */\n      swap3\n      pop\n      swap1\n      pop\n        /* \"#utility.yul\":2594:2598   */\n      dup2\n        /* \"#utility.yul\":2589:2592   */\n      dup5\n        /* \"#utility.yul\":2585:2599   */\n      div\n        /* \"#utility.yul\":2578:2583   */\n      dup2\n        /* \"#utility.yul\":2575:2600   */\n      gt\n        /* \"#utility.yul\":2572:2623   */\n      iszero\n      tag_51\n      jumpi\n        /* \"#utility.yul\":2603:2621   */\n      tag_52\n      tag_16\n      jump\t// in\n    tag_52:\n        /* \"#utility.yul\":2572:2623   */\n    tag_51:\n        /* \"#utility.yul\":2652:2656   */\n      dup2\n        /* \"#utility.yul\":2645:2650   */\n      dup2\n        /* \"#utility.yul\":2641:2657   */\n      mul\n        /* \"#utility.yul\":2632:2657   */\n      swap1\n      pop\n        /* \"#utility.yul\":1590:2663   */\n    tag_37:\n      swap4\n      swap3\n      pop\n      pop\n      pop\n      jump\t// out\n        /* \"#utility.yul\":2669:2755   */\n    tag_20:\n        /* \"#utility.yul\":2704:2711   */\n      0x00\n        /* \"#utility.yul\":2744:2748   */\n      0xff\n        /* \"#utility.yul\":2737:2742   */\n      dup3\n        /* \"#utility.yul\":2733:2749   */\n      and\n        /* \"#utility.yul\":2722:2749   */\n      swap1\n      pop\n        /* \"#utility.yul\":2669:2755   */\n      swap2\n      swap1\n      pop\n      jump\t// out\n        /* \"#utility.yul\":2761:3042   */\n    tag_13:\n        /* \"#utility.yul\":2819:2824   */\n      0x00\n        /* \"#utility.yul\":2843:2866   */\n      tag_55\n        /* \"#utility.yul\":2861:2865   */\n      dup3\n        /* \"#utility.yul\":2843:2866   */\n      tag_14\n      jump\t// in\n    tag_55:\n        /* \"#utility.yul\":2835:2866   */\n      swap2\n      pop\n        /* \"#utility.yul\":2887:2912   */\n      tag_56\n        /* \"#utility.yul\":2903:2911   */\n      dup4\n        /* \"#utility.yul\":2887:2912   */\n      tag_20\n      jump\t// in\n    tag_56:\n        /* \"#utility.yul\":2875:2912   */\n      swap3\n      pop\n        /* \"#utility.yul\":2931:3035   */\n      tag_57\n        /* \"#utility.yul\":2968:3034   */\n      0xffffffffffffffffffffffffffffffffffffffffffffffffffffffffffffffff\n        /* \"#utility.yul\":2958:2966   */\n      dup5\n        /* \"#utility.yul\":2952:2956   */\n      dup5\n        /* \"#utility.yul\":2931:3035   */\n      tag_19\n      jump\t// in\n    tag_57:\n        /* \"#utility.yul\":2922:3035   */\n      swap1\n      pop\n        /* \"#utility.yul\":2761:3042   */\n      swap3\n      swap2\n      pop\n      pop\n      jump\t// out\n\n    auxdata: 0xa2646970667358221220cdfd59158f232603b7c0c54e64dcc0642a2f27d2d16db5770d309ff3db7bf70264736f6c63430008120033\n}\n",
				"bytecode": {
					"linkReferences": {},
					"object": "6080604052600260005534801561001557600080fd5b506102a4806100256000396000f3fe608060405234801561001057600080fd5b50600436106100365760003560e01c806306661abd1461003b578063d742cb0114610059575b600080fd5b610043610063565b6040516100509190610099565b60405180910390f35b610061610069565b005b60005481565b60026000546100789190610223565b600081905550565b6000819050919050565b61009381610080565b82525050565b60006020820190506100ae600083018461008a565b92915050565b7f4e487b7100000000000000000000000000000000000000000000000000000000600052601160045260246000fd5b60008160011c9050919050565b6000808291508390505b600185111561013a57808604811115610116576101156100b4565b5b60018516156101255780820291505b8081029050610133856100e3565b94506100fa565b94509492505050565b600082610153576001905061020f565b81610161576000905061020f565b81600181146101775760028114610181576101b0565b600191505061020f565b60ff841115610193576101926100b4565b5b8360020a9150848211156101aa576101a96100b4565b5b5061020f565b5060208310610133831016604e8410600b84101617156101e55782820a9050838111156101e0576101df6100b4565b5b61020f565b6101f284848460016100f0565b92509050818404811115610209576102086100b4565b5b81810290505b9392505050565b600060ff82169050919050565b600061022e82610080565b915061023983610216565b92506102667fffffffffffffffffffffffffffffffffffffffffffffffffffffffffffffffff8484610143565b90509291505056fea2646970667358221220cdfd59158f232603b7c0c54e64dcc0642a2f27d2d16db5770d309ff3db7bf70264736f6c63430008120033",
					"opcodes": "PUSH1 0x80 PUSH1 0x40 MSTORE PUSH1 0x2 PUSH1 0x0 SSTORE CALLVALUE DUP1 ISZERO PUSH2 0x15 JUMPI PUSH1 0x0 DUP1 REVERT JUMPDEST POP PUSH2 0x2A4 DUP1 PUSH2 0x25 PUSH1 0x0 CODECOPY PUSH1 0x0 RETURN INVALID PUSH1 0x80 PUSH1 0x40 MSTORE CALLVALUE DUP1 ISZERO PUSH2 0x10 JUMPI PUSH1 0x0 DUP1 REVERT JUMPDEST POP PUSH1 0x4 CALLDATASIZE LT PUSH2 0x36 JUMPI PUSH1 0x0 CALLDATALOAD PUSH1 0xE0 SHR DUP1 PUSH4 0x6661ABD EQ PUSH2 0x3B JUMPI DUP1 PUSH4 0xD742CB01 EQ PUSH2 0x59 JUMPI JUMPDEST PUSH1 0x0 DUP1 REVERT JUMPDEST PUSH2 0x43 PUSH2 0x63 JUMP JUMPDEST PUSH1 0x40 MLOAD PUSH2 0x50 SWAP2 SWAP1 PUSH2 0x99 JUMP JUMPDEST PUSH1 0x40 MLOAD DUP1 SWAP2 SUB SWAP1 RETURN JUMPDEST PUSH2 0x61 PUSH2 0x69 JUMP JUMPDEST STOP JUMPDEST PUSH1 0x0 SLOAD DUP2 JUMP JUMPDEST PUSH1 0x2 PUSH1 0x0 SLOAD PUSH2 0x78 SWAP2 SWAP1 PUSH2 0x223 JUMP JUMPDEST PUSH1 0x0 DUP2 SWAP1 SSTORE POP JUMP JUMPDEST PUSH1 0x0 DUP2 SWAP1 POP SWAP2 SWAP1 POP JUMP JUMPDEST PUSH2 0x93 DUP2 PUSH2 0x80 JUMP JUMPDEST DUP3 MSTORE POP POP JUMP JUMPDEST PUSH1 0x0 PUSH1 0x20 DUP3 ADD SWAP1 POP PUSH2 0xAE PUSH1 0x0 DUP4 ADD DUP5 PUSH2 0x8A JUMP JUMPDEST SWAP3 SWAP2 POP POP JUMP JUMPDEST PUSH32 0x4E487B7100000000000000000000000000000000000000000000000000000000 PUSH1 0x0 MSTORE PUSH1 0x11 PUSH1 0x4 MSTORE PUSH1 0x24 PUSH1 0x0 REVERT JUMPDEST PUSH1 0x0 DUP2 PUSH1 0x1 SHR SWAP1 POP SWAP2 SWAP1 POP JUMP JUMPDEST PUSH1 0x0 DUP1 DUP3 SWAP2 POP DUP4 SWAP1 POP JUMPDEST PUSH1 0x1 DUP6 GT ISZERO PUSH2 0x13A JUMPI DUP1 DUP7 DIV DUP2 GT ISZERO PUSH2 0x116 JUMPI PUSH2 0x115 PUSH2 0xB4 JUMP JUMPDEST JUMPDEST PUSH1 0x1 DUP6 AND ISZERO PUSH2 0x125 JUMPI DUP1 DUP3 MUL SWAP2 POP JUMPDEST DUP1 DUP2 MUL SWAP1 POP PUSH2 0x133 DUP6 PUSH2 0xE3 JUMP JUMPDEST SWAP5 POP PUSH2 0xFA JUMP JUMPDEST SWAP5 POP SWAP5 SWAP3 POP POP POP JUMP JUMPDEST PUSH1 0x0 DUP3 PUSH2 0x153 JUMPI PUSH1 0x1 SWAP1 POP PUSH2 0x20F JUMP JUMPDEST DUP2 PUSH2 0x161 JUMPI PUSH1 0x0 SWAP1 POP PUSH2 0x20F JUMP JUMPDEST DUP2 PUSH1 0x1 DUP2 EQ PUSH2 0x177 JUMPI PUSH1 0x2 DUP2 EQ PUSH2 0x181 JUMPI PUSH2 0x1B0 JUMP JUMPDEST PUSH1 0x1 SWAP2 POP POP PUSH2 0x20F JUMP JUMPDEST PUSH1 0xFF DUP5 GT ISZERO PUSH2 0x193 JUMPI PUSH2 0x192 PUSH2 0xB4 JUMP JUMPDEST JUMPDEST DUP4 PUSH1 0x2 EXP SWAP2 POP DUP5 DUP3 GT ISZERO PUSH2 0x1AA JUMPI PUSH2 0x1A9 PUSH2 0xB4 JUMP JUMPDEST JUMPDEST POP PUSH2 0x20F JUMP JUMPDEST POP PUSH1 0x20 DUP4 LT PUSH2 0x133 DUP4 LT AND PUSH1 0x4E DUP5 LT PUSH1 0xB DUP5 LT AND OR ISZERO PUSH2 0x1E5 JUMPI DUP3 DUP3 EXP SWAP1 POP DUP4 DUP2 GT ISZERO PUSH2 0x1E0 JUMPI PUSH2 0x1DF PUSH2 0xB4 JUMP JUMPDEST JUMPDEST PUSH2 0x20F JUMP JUMPDEST PUSH2 0x1F2 DUP5 DUP5 DUP5 PUSH1 0x1 PUSH2 0xF0 JUMP JUMPDEST SWAP3 POP SWAP1 POP DUP2 DUP5 DIV DUP2 GT ISZERO PUSH2 0x209 JUMPI PUSH2 0x208 PUSH2 0xB4 JUMP JUMPDEST JUMPDEST DUP2 DUP2 MUL SWAP1 POP JUMPDEST SWAP4 SWAP3 POP POP POP JUMP JUMPDEST PUSH1 0x0 PUSH1 0xFF DUP3 AND SWAP1 POP SWAP2 SWAP1 POP JUMP JUMPDEST PUSH1 0x0 PUSH2 0x22E DUP3 PUSH2 0x80 JUMP JUMPDEST SWAP2 POP PUSH2 0x239 DUP4 PUSH2 0x216 JUMP JUMPDEST SWAP3 POP PUSH2 0x266 PUSH32 0xFFFFFFFFFFFFFFFFFFFFFFFFFFFFFFFFFFFFFFFFFFFFFFFFFFFFFFFFFFFFFFFF DUP5 DUP5 PUSH2 0x143 JUMP JUMPDEST SWAP1 POP SWAP3 SWAP2 POP POP JUMP INVALID LOG2 PUSH5 0x6970667358 0x22 SLT KECCAK256 0xCD REVERT MSIZE ISZERO DUP16 0x23 0x26 SUB 0xB7 0xC0 0xC5 0x4E PUSH5 0xDCC0642A2F 0x27 0xD2 0xD1 PUSH14 0xB5770D309FF3DB7BF70264736F6C PUSH4 0x43000812 STOP CALLER "
				},
				"gasEstimates": {
					"creation": {
						"codeDepositCost": "135200",
						"executionCost": "22289",
						"totalCost": "157489"
					},
					"external": {
						"count()": "2407",
						"square()": "infinite"
					}
				},
				"methodIdentifiers": {
					"count()": "06661abd",
					"square()": "d742cb01"
				}
			},
			"storageLayout": {
				"storage": [
					{
						"astId": 4,
						"contract": "CounterInterface.sol:Counter",
						"label": "count",
						"offset": 0,
						"slot": "0",
						"type": "t_uint256"
					}
				],
				"types": {
					"t_uint256": {
						"encoding": "inplace",
						"label": "uint256",
						"numberOfBytes": "32"
					}
				}
			},
			"userdoc": {
				"kind": "user",
				"methods": {},
				"version": 1
			}
		}
	}
}